:04000000FEEF17F008
:1013DE00C58AC5881200C5861CEC0AF01200C582AB
:1013EE001CEC0AF01200C5801CEC0AF01200C58439
:1013FE001CEC0AF01200F2EC09F0EFEC09F0C95007
:10140E001200016E01C0C9FF1CEC0AF012001E0E84
:10141E00936EF19EE00E81121200016E01C0A9FFC3
:10142E00A69EA69CA680A85012009EA621EF0AF0AA
:10143E0023EF0AF01CEF0AF09E9612009486948811
:10144E00280EC66E310EC86EC79CC78E9E96A1968C
:10145E0012000A6E000E016E0950B1EC0AF0010E78
:10146E00016E0A50B1EC0AF01200016E9EA842EF16
:10147E000AF044EF0AF03DEF0AF09E9801C0ADFF6E
:10148E001200C08EC09AC088C096C090C082C09410
:10149E00C292C19AC198C46AC36AC2801200526ACB
:1014AE0067EC0DF048EC0AF00EEC0AF025EC0AF0B1
:1014BE0013EC0BF073EC0AF012000A6EFAEC09F062
:1014CE00D00E08EC0AF00A5008EC0AF0095008ECAD
:1014DE000AF0FEEC09F01200948E949CAC9CAC8A3F
:1014EE00AC98AC96AC84AB8EAB9CAB88B896810EA8
:1014FE00AF6E9E989E9A1200026EFAEC09F0D00E14
:10150E0008EC0AF0025008EC0AF0F6EC09F0D10EE5
:10151E0008EC0AF002EC0AF0036EFEEC09F0035040
:10152E001200026E02C0A9FF01C0A8FFA69EA69CD3
:10153E00A684F29E550EA76EAA0EA76EA682F28EF6
:10154E00A1A8ACEF0AF0AEEF0AF0A7EF0AF0A1984F
:10155E00A6941200026E01B0B7EF0AF0BAEF0AF0CD
:10156E008282BBEF0AF0829202C083FF8284829451
:10157E00958E828082928284829483BEC9EF0AF015
:10158E00CBEF0AF0C2EF0AF08290959E1200C40EC5
:10159E00036E2F0E046E800E056E1DEC0CF0426A6B
:1015AE00000E416E4F6A3E6A000E3D6E330E076EA0
:1015BE00BB0E066EE00EE82EFED7062EFCD7072ECB
:1015CE00FAD7000E016E010EB1EC0AF0010E526E4A
:1015DE001200076E07C003F0D8900336D89003367A
:1015EE00C250C30B0310C26EC282C2B201EF0BF027
:1015FE0003EF0BF0FCEF0AF0C350C4CF03F0046A04
:10160E0003C004F0036A0310056E0450066E05C095
:10161E0001F006C002F01200000E83EC0AF00B6E11
:10162E000B508009096E000E64EC0AF0020E83EC7A
:10163E000AF00B6E0B504009096E020E64EC0AF0B4
:10164E00930E096E070E64EC0AF0000E83EC0AF09E
:10165E000B6E0B507F0B096E000E64EC0AF012003D
:10166E0056696577204C6F6700000000000000008F
:10167E0000000000446F776E6C6F6164204C6F67E2
:10168E000000000000000000436C656172204C6F8A
:10169E006700000000000000000000005365742089
:1016AE0054696D650000000000000000000000009D
:1016BE006E0EF66E160EF76E000EF86E00EE60F001
:1016CE0010EE50F00900F5CFEEFFE550E150FAE1D3
:1016DE00000EF66E300EF76E000EF86E0900F5CFA6
:1016EE005FF001EE00F0A00EEE6AE806FDE100EEFE
:1016FE0036F0290EEE6AE806FDE1000EF86E0001E6
:10170E00CEEF0CF09FEF0BF002C0F6FF03C0F7FF19
:10171E00F86A050EF76403D00800F55005D0F6CF31
:10172E00D9FFF7CFDAFFDF503CEC0AF0024A032A6A
:10173E0002C0F6FF03C0F7FFF86A050EF76403D088
:10174E000800F55005D0F6CFD9FFF7CFDAFFDF50FE
:10175E000009D8A4B5EF0BF0B7EF0BF08BEF0BF041
:10176E00120003500410D8B4BFEF0BF0C1EF0BF012
:10177E00E5EF0BF0010E056EC9EF0BF0D8900336B6
:10178E000436052A04AECEEF0BF0D0EF0BF0C5EF0A
:10179E000BF00350015C04500258D8A0D9EF0BF0A7
:1017AE00DBEF0BF0DFEF0BF00350015E0450025A3B
:1017BE00D89004320332052ED0EF0BF001C001F0A9
:1017CE0002C002F01200026E0250D8A4F1EF0BF02C
:1017DE00F3EF0BF0F6EF0BF001501CEF0CF00204E0
:1017EE00D8A4FCEF0BF0FEEF0BF01BEF0CF0012872
:1017FE00D8B404EF0CF006EF0CF011EF0CF05F50C4
:10180E00D8B40CEF0CF00EEF0CF011EF0CF05F6A89
:10181E00F3EF0BF00128D8A417EF0CF019EF0CF032
:10182E001BEF0CF0010E5F6EFF0E1200000E016E2C
:10183E000550B1EC0AF03AEF0CF0010E016E03C048
:10184E00F6FF04C0F7FFF86A050EF76403D0080030
:10185E00F55005D0F6CFD9FFF7CFDAFFDF50B1EC58
:10186E000AF0034A042A03C0F6FF04C0F7FFF86A21
:10187E00050EF76403D00800F55005D0F6CFD9FF5A
:10188E00F7CFDAFFDF500009D8A450EF0CF052EF7B
:10189E000CF024EF0CF01200066A000E056E0350D9
:1018AE000410D8B45DEF0CF05FEF0CF087EF0CF086
:1018BE00010E076E67EF0CF0D89003360436072A38
:1018CE0004AE6CEF0CF06EEF0CF063EF0CF0D890F2
:1018DE00053606360350015C04500258D8A07AEF44
:1018EE000CF07CEF0CF081EF0CF00350015E045015
:1018FE00025A0580D89004320332072E6EEF0CF098
:10190E0005C001F006C002F01200020E83EC0AF0D0
:10191E00366E010E83EC0AF0376E000E83EC0AF081
:10192E00386E36AC9DEF0CF09FEF0CF0ACEF0CF078
:10193E00010E4E6E36380F0B010B300F536E3650B4
:10194E000F0B300F546EB6EF0CF04E6A36380F0B8D
:10195E00030B300F536E36500F0B300F546E3A0E82
:10196E00556E37380F0B0F0B300F566E37500F0B5F
:10197E00300F576E3A0E586E38380F0B0F0B300F64
:10198E00596E38500F0B300F5A6E5B6A120056ECC0
:10199E000AF05BEC0FF0516E51C001F0010EEAEC53
:1019AE000BF0506EF3EF0CF0DFEC0FF0D0EF0CF00D
:1019BE002EEC13F0D0EF0CF00EEC11F0D0EF0CF08B
:1019CE0076EC10F0D0EF0CF0CEEC0AF0D0EF0CF07D
:1019DE00D8EC14F0D0EF0CF05250346E356A35500E
:1019EE00000AD8B4FDEF0CF0D0EF0CF03450000A22
:1019FE00D8B4DBEF0CF0010AD8B4DFEF0CF0030A19
:101A0E00D8B4E3EF0CF0010AD8B4EFEF0CF0070AEC
:101A1E00D8B4E7EF0CF0010AD8B4EBEF0CF0D0EF2E
:101A2E000CF0FEEF17F05004D8A420EF0DF022EFCB
:101A3E000DF031EF0DF0445007E1070E435CD8B0C6
:101A4E002BEF0DF02DEF0DF031EF0DF0434A442A40
:101A5E0054EF0DF0020E5018D8A438EF0DF03AEFF7
:101A6E000DF048EF0DF043504410D8B441EF0DF097
:101A7E0043EF0DF048EF0DF04306D8A0440654EFA7
:101A8E000DF0030E5018D8A44FEF0DF051EF0DF0DE
:101A9E0054EF0DF0446A080E436E43503B1809E1B3
:101AAE0044503C18D8B45EEF0DF060EF0DF066EFC9
:101ABE000DF071EC0EF043C03BF044C03CF0120050
:101ACE00956A9450F80B946E8290C30E036ECD0EF1
:101ADE00E82EFED7032EFCD70000000E016E330E4B
:101AEE00B1EC0AF01B0E036E9E0EE82EFED7032EEF
:101AFE00FCD700D0000E016E330EB1EC0AF0A60E2C
:101B0E00E82EFED700D0000E016E330EB1EC0AF0B7
:101B1E0000D000D00000000E016E020EB1EC0AF0F3
:101B2E00A60EE82EFED700D0000E016E380EB1ECD8
:101B3E000AF0A60EE82EFED700D0000E016E010EA2
:101B4E00B1EC0AF0040E036E3E0EE82EFED7032E05
:101B5E00FCD7000E016E0C0EB1EC0AF0A60EE82EAC
:101B6E00FED700D01200066A02BEC2EF0DF0C0EF23
:101B7E000DF0C8EF0DF0016C021ED8B0022A010E56
:101B8E00066E04BECFEF0DF0CDEF0DF0D3EF0DF0DE
:101B9E00036C041ED8B0042A03500410D8B4DAEF34
:101BAE000DF0DCEF0DF000EF0EF0010E056EE4EF20
:101BBE000DF0D89003360436052A04AEE9EF0DF089
:101BCE00EBEF0DF0E0EF0DF00350015C0450025806
:101BDE00D8A0F4EF0DF0F6EF0DF0FAEF0DF0035084
:101BEE00015E0450025AD89004320332052EEBEFF8
:101BFE000DF00650D8B406EF0EF008EF0EF00CEF15
:101C0E000EF0016C021ED8B0022A01C001F002C013
:101C1E0002F01200066A04BE19EF0EF017EF0EF076
:101C2E001FEF0EF0036C041ED8B0042A010E066ED0
:101C3E0002BE26EF0EF024EF0EF02CEF0EF0016C2C
:101C4E00021ED8B0022A010E061A086A000E076E8E
:101C5E0003500410D8B436EF0EF038EF0EF060EFEC
:101C6E000EF0010E056E40EF0EF0D89003360436DE
:101C7E00052A04AE45EF0EF047EF0EF03CEF0EF0E6
:101C8E00D890073608360350015C04500258D8A08D
:101C9E0053EF0EF055EF0EF05AEF0EF00350015EBB
:101CAE000450025A0780D89004320332052E47EFB3
:101CBE000EF00650D8B466EF0EF068EF0EF06CEF33
:101CCE000EF0076C081ED8B0082A07C001F008C035
:101CDE0002F012008CEC0CF0414A422A076A000E08
:101CEE00066E0650530FD96EDA6ADF50016E4F50F2
:101CFE0098EC0AF04F2A064A072A07BE90EF0EF01C
:101D0E00075009E1080E065CD8A090EF0EF092EF96
:101D1E000EF078EF0EF0030E4302F3CF04F0F4CF83
:101D2E0005F04402F3500526750E0424F66E2F0EB0
:101D3E000520F76E0800F5CF01F04F5098EC0AF031
:101D4E004F2A030E4302F3CF04F0F4CF05F0440202
:101D5E00F3500526010E0426000E0522750E0424EE
:101D6E00F66E2F0E0520F76E0800F5CF01F04F50DE
:101D7E0098EC0AF04F2A5CC001F04F5098EC0AF034
:101D8E004F2A5DC001F04F5098EC0AF04F2A770EA3
:101D9E004F64D4EF0EF0D6EF0EF0D7EF0EF04F6A81
:101DAE0012002A342B34316E3150D8A4E1EF0EF0EC
:101DBE00E3EF0EF0EDEF0EF0000E286E000E296E22
:101DCE00000E2A6E000E2B6E5AEF0FF028C02CF06C
:101DDE0029C02DF02AC02EF02BC02FF0200EFDEFC3
:101DEE000EF0D8902F322E322D322C32E82EF8EF04
:101DFE000EF02C50306E2A8EFF0E2816FF0E29166E
:101E0E00FF0E2A16000E2B16960E315E31BE14EF03
:101E1E000FF012EF0FF02AEF0FF03150800A970FEC
:101E2E00D8B01CEF0FF01EEF0FF020EF0FF0E3EF26
:101E3E000EF0D8902B322A3229322832313E20EF42
:101E4E000FF042EF0FF01F0E316430EF0FF032EF54
:101E5E000FF03AEF0FF0E3EF0EF0D8902836293658
:101E6E002A362B3631063150D8A440EF0FF042EF10
:101E7E000FF034EF0FF03050D8B448EF0FF04AEFB8
:101E8E000FF052EF0FF02B1E2A1E291E286C000E8B
:101E9E0029222A222B2228C028F029C029F02AC064
:101EAE002AF02BC02BF01200819A818C818E81B288
:101EBE0063EF0FF065EF0FF068EF0FF0010EDEEF3E
:101ECE000FF081B46DEF0FF06FEF0FF072EF0FF0B8
:101EDE00040EDEEF0FF081B677EF0FF079EF0FF013
:101EEE007CEF0FF0070EDEEF0FF081B881EF0FF0F1
:101EFE0083EF0FF086EF0FF00A0EDEEF0FF0818A00
:101F0E00819C818E81B28EEF0FF090EF0FF093EFE8
:101F1E000FF0020EDEEF0FF081B498EF0FF09AEF94
:101F2E000FF09DEF0FF0050EDEEF0FF081B6A2EF72
:101F3E000FF0A4EF0FF0A7EF0FF0080EDEEF0FF08B
:101F4E0081B8ACEF0FF0AEEF0FF0B1EF0FF00B0E5C
:101F5E00DEEF0FF0818A818C819E819E81B2BAEF75
:101F6E000FF0BCEF0FF0BFEF0FF0030EDEEF0FF030
:101F7E0081B4C4EF0FF0C6EF0FF0C9EF0FF0060EED
:101F8E00DEEF0FF081B6CEEF0FF0D0EF0FF0D3EF04
:101F9E000FF0090EDEEF0FF081B8D8EF0FF0DAEF89
:101FAE000FF0DDEF0FF00C0EDEEF0FF0FF0E120054
:101FBE00F30E036E2F0E046E820E056E1DEC0CF0EA
:101FCE00F80E036E2F0E046E890E056E1DEC0CF0CE
:101FDE00B10E036E2F0E046E8D0E056E1DEC0CF001
:101FEE008CEC0CF0530E036E046AC00E056E1DECE5
:101FFE000CF01AEC0DF0030E4302F3CF32F0F4CFD7
:10200E0033F04402F3503326750E3224036E2F0E36
:10201E003320046EC90E056E1DEC0CF0040EF0ECB0
:10202E000AF001C047F002C048F0140E136EAE0E57
:10203E00146E230E156E410E166E47C001F048C089
:10204E0002F0036A046A000EFEEC13F001C00FF0FA
:10205E0002C010F003C011F004C012F0F3EC15F042
:10206E000FC028F010C029F011C02AF012C02BF0BA
:10207E00D8EC0EF028C045F029C046F045C001F05E
:10208E0046C002F0046A0A0E036E53EC0CF00150C7
:10209E00300F5C6E45C001F046C002F0046A0A0EB5
:1020AE00036EB8EC0BF00150300F5D6E5E6A5C0E85
:1020BE00036E046ACD0E056E1DEC0CF00B0E50185F
:1020CE00D8A46CEF10F06EEF10F075EF10F0010E5B
:1020DE00526E000E016E010EB1EC0AF0120066ECAB
:1020EE0012F0E40E036E2F0E046E800E056E1DECC4
:1020FE000CF041504210D8A487EF10F089EF10F089
:10210E00A6EF10F0D40E036E2F0E046EC00E056EE9
:10211E001DEC0CF01A0E126E5E0E116E6E0EE82E87
:10212E00FED7112EFCD7122EFAD700D0010E526E0A
:10213E00000E016E010EB1EC0AF00DEF11F04250DF
:10214E0009E10B0E415CD8A0AFEF10F0B1EF10F02B
:10215E00B6EF10F0146A0A0E136EBAEF10F041C00B
:10216E0013F042C014F0A00E026E2F0E036E89EC17
:10217E000BF0900E026E2F0E036E89EC0BF0166AAA
:10218E00000E156EEFEF10F01550300F3CEC0AF00C
:10219E00200E3CEC0AF015C011F016C012F0113AE8
:1021AE00123AF00E121611500F0B1212F00E1116EB
:1021BE00000E1124026E010E1220036E89EC0BF03C
:1021CE00A00E026E2F0E036E89EC0BF0154A162A26
:1021DE001350155C14501658D8A0F8EF10F0FAEF03
:1021EE0010F0CBEF10F01A0E126E5E0E116E6E0E18
:1021FE00E82EFED7112EFCD7122EFAD700D0010EE4
:10220E00526E000E016E010EB1EC0AF0120066EC79
:10221E0012F0A30E036E2F0E046E800E056E1DECD3
:10222E000CF0425009E10B0E415CD8A021EF11F0E9
:10223E0023EF11F028EF11F0146A0A0E136E2CEF33
:10224E0011F041C013F042C014F013501410D8A472
:10225E0033EF11F035EF11F03FEF11F0D40E036EA6
:10226E002F0E046EC00E056E1DEC0CF098EF11F0E3
:10227E005004D8A445EF11F047EF11F05DEF11F0C7
:10228E0013503D24116E14503E20126EFF0E112479
:10229E00016EFF0E1220026E13C003F014C004F084
:1022AE00B8EC0BF001C03DF002C03EF0020E50182B
:1022BE00D8A464EF11F066EF11F076EF11F0010E75
:1022CE003D24016E000E3E20026E13C003F014C0BA
:1022DE0004F0B8EC0BF001C03DF002C03EF0C00EB1
:1022EE00096E3D50300F30EC0AF0C10E096E200E13
:1022FE0030EC0AF03DC011F03EC012F0113A123A25
:10230E00F00E121611500F0B1212F00E1116000EC7
:10231E001124036E010E1220046EC20E056E1DEC0A
:10232E000CF00C0E5018D8A49FEF11F0A1EF11F085
:10233E00ABEF11F03E6A000E3D6E010E526E000EB6
:10234E00016E010EB1EC0AF01200106EC40E096E91
:10235E0010C001F0026A046A0A0E036E11EC0EF050
:10236E000150300F30EC0AF0C50E096E10C001F0AE
:10237E00026A046A0A0E036EBAEC0DF00150300FB9
:10238E0030EC0AF0C60E096E3A0E30EC0AF0C70EAB
:10239E00096E0BC001F0026A046A0A0E036E11EC9C
:1023AE000EF00150300F30EC0AF0C80E096E0BC063
:1023BE0001F0026A046A0A0E036EBAEC0DF00150C7
:1023CE00300F30EC0AF0C90E096E3A0E30EC0AF0FE
:1023DE00CA0E096E0CC001F0026A046A0A0E036E80
:1023EE0011EC0EF00150300F30EC0AF0CB0E096EEE
:1023FE000CC001F0026A046A0A0E036EBAEC0DF00C
:10240E000150300F30EC0AF039500E6E3A500F6E0C
:10241E00394A3A2A0F5009E1FB0E0E5CD8A01AEF8A
:10242E0012F01CEF12F057EF12F00D50D8A422EF5D
:10243E0012F024EF12F030EF12F0C40E096E200EDF
:10244E0030EC0AF0C50E096E200E30EC0AF057EF94
:10245E0012F00D04D8A436EF12F038EF12F044EF5C
:10246E0012F0C70E096EFF0E30EC0AF0C80E096EA0
:10247E00FF0E30EC0AF057EF12F0020E0D18D8A432
:10248E004BEF12F04DEF12F057EF12F0CA0E096E2D
:10249E00FF0E30EC0AF0CB0E096EFF0E30EC0AF098
:1024AE00F50E395C010E3A58D8A060EF12F062EFCB
:1024BE0012F065EF12F03A6A000E396E12004250B9
:1024CE0009E10B0E415CD8A06FEF12F071EF12F024
:1024DE0083EF12F041C001F042C002F0046A0A0E0E
:1024EE00036EB8EC0BF001500C0DF3CF0CF00B6A31
:1024FE000A0E0A6E88EF12F00C6A41C00AF042C052
:10250E000BF00CC04FF00E6A000E0D6E22EF13F0A2
:10251E00106A000E0F6E080E0F181010D8B49AEF36
:10252E0012F09CEF12F0A6EF12F00B0E0F18101017
:10253E00D8A4A4EF12F0A6EF12F0C3EF12F00DC064
:10254E0006F00EC007F0063A073AF00E07160650D0
:10255E000F0B0712F00E0616000E0624086E010E63
:10256E000720096E0F500824D96E10500920DA6E1C
:10257E00200EDF6E10EF13F00E0E0F181010D8A4F1
:10258E00CBEF12F0CDEF12F0E9EF12F00DC006F026
:10259E000EC007F0063A073AF00E071606500F0B5C
:1025AE000712F00E0616000E0624086E010E072006
:1025BE00096E0F500824D96E10500920DA6EDF6AAA
:1025CE0010EF13F00DC006F00EC007F0063A073AF2
:1025DE00F00E071606500F0B0712F00E0616000E21
:1025EE000624086E010E0720096E0F500824D96EBE
:1025FE0010500920DA6E4F5014EC0AF0DF6E4F2A9D
:10260E00770E4F640DEF13F00FEF13F010EF13F082
:10261E004F6A0F4A102A10BE1EEF13F0105009E138
:10262E000F0E0F5CD8A01EEF13F020EF13F092EFF9
:10263E0012F00D4A0E2A0A500D5C0B500E58D8A0FF
:10264E002BEF13F02DEF13F08FEF12F0120050045A
:10265E00D8A434EF13F036EF13F047EF13F0000E5B
:10266E00016E010EB1EC0AF03F504010D8B442EFAB
:10267E0013F044EF13F047EF13F03F06D8A04006D7
:10268E00020E5018D8A44EEF13F050EF13F062EF75
:10269E0013F0000E016E010EB1EC0AF0405007E18E
:1026AE00030E3F5CD8B05EEF13F060EF13F062EFF5
:1026BE0013F03F4A402A3F504010D8A469EF13F060
:1026CE006BEF13F08FEF13F0800E096E2A0E30ECC5
:1026DE000AF03F50140DF350600F0B6E0BC003F059
:1026EE00046A820E056E1DEC0CF0C00E096E200EF3
:1026FE0030EC0AF03F50140DF350740F0B6E0BC0FC
:10270E0003F0046AC20E056E1DEC0CF0B1EF13F06F
:10271E00800E096E200E30EC0AF03F50140DF3506F
:10272E004C0F0B6E0BC003F0046A820E056E1DEC8F
:10273E000CF0C00E096E2A0E30EC0AF03F50140D4C
:10274E00F350600F0B6E0BC003F0046AC20E056EE1
:10275E001DEC0CF00B0E5018D8A4B8EF13F0BAEF16
:10276E0013F0EDEF13F0000E016E010EB1EC0AF056
:10277E003F504010D8A4C6EF13F0C8EF13F0CAEFC5
:10278E0013F0020E526E3F044010D8A4D1EF13F096
:10279E00D3EF13F0D5EF13F0040E526E020E3F1866
:1027AE004010D8A4DDEF13F0DFEF13F0E1EF13F0DC
:1027BE00050E526E030E3F184010D8A4E9EF13F029
:1027CE00EBEF13F0EDEF13F0030E526E0C0E5018EC
:1027DE00D8A4F4EF13F0F6EF13F0FDEF13F0526AF6
:1027EE00506A000E016E010EB1EC0AF01200096E75
:1027FE000950D8B405EF14F007EF14F029EF14F0D8
:10280E0004BE0EEF14F00CEF14F029EF14F001C01B
:10281E0005F002C006F003C007F004C008F0051E64
:10282E00061E071E081E052A000E06220722082273
:10283E0005C00BF006C00CF007C00DF008C00EF07E
:10284E0031EF14F001C00BF002C00CF003C00DF01C
:10285E0004C00EF00150021003100410D8A43AEF79
:10286E0014F03CEF14F046EF14F0000E016E000E63
:10287E00026E000E036E000E046ED7EF14F0960E6D
:10288E000A6E50EF14F00A2AD8900E320D320C3226
:10289E000B32000E0B14056E000E0C14066E000E9D
:1028AE000D14076EFE0E0E14086E0550061007105E
:1028BE000810D8A465EF14F067EF14F04AEF14F087
:1028CE0075EF14F00A2A010E0B26000E0C220D22B3
:1028DE000E22D8900E320D320C320B32000E0B142B
:1028EE00056E000E0C14066E000E0D14076EFF0E14
:1028FE000E14086E0550061007100810D8A48AEFA3
:10290E0014F08CEF14F069EF14F094EF14F00A0643
:10291E00D8900B360C360D360E360DBE99EF14F0E0
:10292E009BEF14F0A3EF14F0020E0A60A1EF14F067
:10293E00A3EF14F08EEF14F00AB0A8EF14F0AAEF84
:10294E0014F0ABEF14F00D9ED8900A320AC005F0C9
:10295E00066A076A086A05C008F0076A066A056A09
:10296E0005500B1206500C1207500D1208500E1285
:10297E000950D8B4C5EF14F0C7EF14F0CFEF14F030
:10298E0004BECEEF14F0CCEF14F0CFEF14F00E8E99
:10299E000BC001F00CC002F00DC003F00EC004F02D
:1029AE001200B40E036E2F0E046E800E056E1DEC1B
:1029BE000CF04950D8A4E6EF14F0E8EF14F0FEEF57
:1029CE0014F08CEC0CF053500A0DF3505424F00F0D
:1029DE004C6E56500A0DF3505724F00F4B6E595053
:1029EE000A0DF3505A24F00F4A6E010E496E020E74
:1029FE005018D8A405EF15F007EF15F011EF15F0EC
:102A0E004D2A020E4D640EEF15F010EF15F011EF7A
:102A1E0015F04D6A5004D8A417EF15F019EF15F004
:102A2E0074EF15F04D50D8A41FEF15F021EF15F0EF
:102A3E0047EF15F04E50D8B427EF15F029EF15F0EB
:102A4E0038EF15F00C0E4C602FEF15F031EF15F03E
:102A5E0034EF15F04C2A74EF15F0010E4C6E74EF36
:102A6E0015F0010E4C24016E026A000E0222046A59
:102A7E00180E036EBAEC0DF001504C6E74EF15F09B
:102A8E004D04D8A44DEF15F04FEF15F05EEF15F095
:102A9E00010E4B24016E026A000E0222046A3C0EE5
:102AAE00036EBAEC0DF001504B6E74EF15F0020E82
:102ABE004D18D8A465EF15F067EF15F074EF15F00B
:102ACE00010E4A24016E026A000E0222046A3C0EB6
:102ADE00036EBAEC0DF001504A6E4BC00BF04AC0BB
:102AEE000CF04DC00DF04C50ACEC11F00B0E50181C
:102AFE00D8A484EF15F086EF15F0E0EF15F04CC07A
:102B0E0001F0026A046A0A0E036EBAEC0DF001C0FF
:102B1E0011F002C012F04CC001F0026A046A0A0EF3
:102B2E00036E11EC0EF00138F00B1110096E020E4F
:102B3E0064EC0AF04BC001F0026A046A0A0E036EDE
:102B4E00BAEC0DF001C011F002C012F04BC001F052
:102B5E00026A046A0A0E036E11EC0EF00138F00BD5
:102B6E001110096E010E64EC0AF04AC001F0026AFF
:102B7E00046A0A0E036EBAEC0DF001C011F002C029
:102B8E0012F04AC001F0026A046A0A0E036E11ECDA
:102B9E000EF00138F00B1110096E000E64EC0AF005
:102BAE00496A4D6A010E526E000E016E010EB1ECB5
:102BBE000AF00C0E5018D8A4E7EF15F0E9EF15F057
:102BCE00F2EF15F0496A4D6A010E526E000E016E5B
:102BDE00010EB1EC0AF012001250800B1F6E125053
:102BEE001224266E11AEFEEF15F000EF16F001EF77
:102BFE0016F026802650D8B407EF16F009EF16F01F
:102C0E001DEF16F02628D8A40FEF16F011EF16F0D0
:102C1E0019EF16F0000E0F6E000E106E000E116EF4
:102C2E00000E126E118E126A25EF16F0000E0F6E48
:102C3E00000E106E000E116E000E126E1650800BEE
:102C4E001F1A16501624276E15AE30EF16F032EFFF
:102C5E0016F033EF16F027802750D8B439EF16F060
:102C6E003BEF16F04FEF16F02728D8A441EF16F0E1
:102C7E0043EF16F04BEF16F0000E136E000E146EAF
:102C8E00000E156E000E166E158E166A57EF16F0A4
:102C9E00000E136E000E146E000E156E000E166EE4
:102CAE001350141015101610D8A460EF16F062EF22
:102CBE0016F07AEF16F0000E0F6E000E106E000E6C
:102CCE00116E000E126E800E11127F0E12121F5018
:102CDE0012120FC00FF010C010F011C011F012C080
:102CEE0012F0B9EF17F02650D8A480EF16F082EF4D
:102CFE0016F08CEF16F0000E0F6E000E106E000E1A
:102D0E00116E000E126EB9EF17F0275026C017F095
:102D1E00186A175E000E185A7F0E1724206E000ECA
:102D2E001820216E0FC01BF010C01CF011C01DF03A
:102D3E0012C01EF0000E0F6E000E106E000E116E01
:102D4E00000E126E000E226E000E236E000E246E0A
:102D5E00000E256E276AECEF16F02750D8B4BAEFA6
:102D6E0016F0BCEF16F0D3EF16F0D8901B361C36CB
:102D7E001D361E36D8900F3610361136123625AE49
:102D8E00CBEF16F0CDEF16F0CEEF16F00F80D890F9
:102D9E00223623362436253613501B5C14501C580D
:102DAE0015501D5816501E58D8A0E0EF16F0E2EF41
:102DBE0016F0EBEF16F0258C13501B5E14501C5AB8
:102DCE0015501D5A16501E5A272A190E2764F2EF57
:102DDE0016F0F4EF16F0B4EF16F01B501C101D1089
:102DEE001E10D8B4FDEF16F0FFEF16F017EF17F028
:102DFE00228017EF17F0D8900F3610361136123694
:102E0E0025AE0CEF17F00EEF17F00FEF17F00F8047
:102E1E00D89022362336243625362006D8A0210611
:102E2E0011AE1CEF17F01EEF17F002EF17F0276A26
:102E3E0025AE24EF17F026EF17F04AEF17F0FF0E2E
:102E4E002214176EFF0E2314186EFF0E2414196E23
:102E5E007F0E25141A6E1750181019101A10D8B4A8
:102E6E003BEF17F03DEF17F041EF17F0010E276E15
:102E7E004AEF17F00FA046EF17F048EF17F04AEFA2
:102E8E0017F03DEF17F02750D8B450EF17F052EF70
:102E9E0017F076EF17F0010E0F26000E10221122FA
:102EAE00122212A05DEF17F05FEF17F076EF17F01A
:102EBE000FC017F010C018F011C019F012C01AF0A0
:102ECE001A341A3219321832173217C00FF018C0CE
:102EDE0010F019C011F01AC012F0204A212A21BE9A
:102EEE0081EF17F0215008E12028D8A081EF17F0CC
:102EFE0083EF17F08EEF17F0000E216E2068000E94
:102F0E000F6E000E106E000E116E000E126E21BEB0
:102F1E009BEF17F0215006E12004D8B099EF17F07F
:102F2E009BEF17F0A7EF17F0216A000E206E000E30
:102F3E000F6E000E106E000E116E000E126E1F6AD6
:102F4E0020C026F026A0AEEF17F0B0EF17F0B3EFCB
:102F5E0017F0118EB4EF17F0119ED8902630126E26
:102F6E006EEF16F01200004F4E004E450047310036
:102F7E00473200473300473400473500475200437D
:102F8E004C004E202054494D4520202020475220F1
:102F9E0053500D0A004E202054494D45202020202C
:102FAE004752205350002020202048483A4D4D3A99
:102FBE00535320202000434C454152494E47204C4C
:102FCE004F472E2E2E004E4F204C4F47532050521F
:102FDE004553454E5400444F574E4C4F4144494E75
:102FEE00472E2E2E0054494D4500455600005FEFEA
:032FFE000BF001D4
:020000040020DA
:08000000FFFFFFFFFFFFFFFF00
:020000040030CA
:0E000000FF071F1FFF8285FF0FC00FE00F409C
:00000001FF
